{
  "address": "0xfF3373770060aCB237Bb0f55D09D74f349790c06",
  "abi": [
    {
      "inputs": [
        {
          "internalType": "address",
          "name": "_tokenA",
          "type": "address"
        },
        {
          "internalType": "address",
          "name": "_tokenB",
          "type": "address"
        }
      ],
      "stateMutability": "nonpayable",
      "type": "constructor"
    },
    {
      "inputs": [
        {
          "internalType": "address",
          "name": "owner",
          "type": "address"
        }
      ],
      "name": "OwnableInvalidOwner",
      "type": "error"
    },
    {
      "inputs": [
        {
          "internalType": "address",
          "name": "account",
          "type": "address"
        }
      ],
      "name": "OwnableUnauthorizedAccount",
      "type": "error"
    },
    {
      "anonymous": false,
      "inputs": [
        {
          "indexed": false,
          "internalType": "address",
          "name": "provider",
          "type": "address"
        },
        {
          "indexed": false,
          "internalType": "uint256",
          "name": "amountA",
          "type": "uint256"
        },
        {
          "indexed": false,
          "internalType": "uint256",
          "name": "amountB",
          "type": "uint256"
        }
      ],
      "name": "LiquidityAdded",
      "type": "event"
    },
    {
      "anonymous": false,
      "inputs": [
        {
          "indexed": false,
          "internalType": "address",
          "name": "provider",
          "type": "address"
        },
        {
          "indexed": false,
          "internalType": "uint256",
          "name": "amountA",
          "type": "uint256"
        },
        {
          "indexed": false,
          "internalType": "uint256",
          "name": "amountB",
          "type": "uint256"
        }
      ],
      "name": "LiquidityRemoved",
      "type": "event"
    },
    {
      "anonymous": false,
      "inputs": [
        {
          "indexed": true,
          "internalType": "address",
          "name": "previousOwner",
          "type": "address"
        },
        {
          "indexed": true,
          "internalType": "address",
          "name": "newOwner",
          "type": "address"
        }
      ],
      "name": "OwnershipTransferred",
      "type": "event"
    },
    {
      "anonymous": false,
      "inputs": [
        {
          "indexed": false,
          "internalType": "address",
          "name": "swapper",
          "type": "address"
        },
        {
          "indexed": false,
          "internalType": "address",
          "name": "tokenIn",
          "type": "address"
        },
        {
          "indexed": false,
          "internalType": "address",
          "name": "tokenOut",
          "type": "address"
        },
        {
          "indexed": false,
          "internalType": "uint256",
          "name": "amountIn",
          "type": "uint256"
        },
        {
          "indexed": false,
          "internalType": "uint256",
          "name": "amountOut",
          "type": "uint256"
        }
      ],
      "name": "TokensSwapped",
      "type": "event"
    },
    {
      "inputs": [
        {
          "internalType": "uint256",
          "name": "_amountA",
          "type": "uint256"
        },
        {
          "internalType": "uint256",
          "name": "_amountB",
          "type": "uint256"
        }
      ],
      "name": "addLiquidity",
      "outputs": [],
      "stateMutability": "nonpayable",
      "type": "function"
    },
    {
      "inputs": [
        {
          "internalType": "address",
          "name": "_token",
          "type": "address"
        }
      ],
      "name": "getPrice",
      "outputs": [
        {
          "internalType": "uint256",
          "name": "",
          "type": "uint256"
        }
      ],
      "stateMutability": "view",
      "type": "function"
    },
    {
      "inputs": [],
      "name": "liquidTokenA",
      "outputs": [
        {
          "internalType": "uint256",
          "name": "",
          "type": "uint256"
        }
      ],
      "stateMutability": "view",
      "type": "function"
    },
    {
      "inputs": [],
      "name": "liquidTokenB",
      "outputs": [
        {
          "internalType": "uint256",
          "name": "",
          "type": "uint256"
        }
      ],
      "stateMutability": "view",
      "type": "function"
    },
    {
      "inputs": [],
      "name": "owner",
      "outputs": [
        {
          "internalType": "address",
          "name": "",
          "type": "address"
        }
      ],
      "stateMutability": "view",
      "type": "function"
    },
    {
      "inputs": [
        {
          "internalType": "uint256",
          "name": "_amountA",
          "type": "uint256"
        },
        {
          "internalType": "uint256",
          "name": "_amountB",
          "type": "uint256"
        }
      ],
      "name": "removeLiquidity",
      "outputs": [],
      "stateMutability": "nonpayable",
      "type": "function"
    },
    {
      "inputs": [],
      "name": "renounceOwnership",
      "outputs": [],
      "stateMutability": "nonpayable",
      "type": "function"
    },
    {
      "inputs": [
        {
          "internalType": "uint256",
          "name": "_amountA",
          "type": "uint256"
        }
      ],
      "name": "swapAforB",
      "outputs": [],
      "stateMutability": "nonpayable",
      "type": "function"
    },
    {
      "inputs": [
        {
          "internalType": "uint256",
          "name": "_amountB",
          "type": "uint256"
        }
      ],
      "name": "swapBforA",
      "outputs": [],
      "stateMutability": "nonpayable",
      "type": "function"
    },
    {
      "inputs": [],
      "name": "tokenA",
      "outputs": [
        {
          "internalType": "contract IERC20",
          "name": "",
          "type": "address"
        }
      ],
      "stateMutability": "view",
      "type": "function"
    },
    {
      "inputs": [],
      "name": "tokenB",
      "outputs": [
        {
          "internalType": "contract IERC20",
          "name": "",
          "type": "address"
        }
      ],
      "stateMutability": "view",
      "type": "function"
    },
    {
      "inputs": [
        {
          "internalType": "address",
          "name": "newOwner",
          "type": "address"
        }
      ],
      "name": "transferOwnership",
      "outputs": [],
      "stateMutability": "nonpayable",
      "type": "function"
    }
  ],
  "transactionHash": "0xcc0423b763a6b6cfae532349991bf8fb2916c7018c13606e0ab844eb601bb1e3",
  "args": [
    "0x82bc4b3FfAce08EF467b504A5de1E1D739241B19",
    "0xdb19c315bbd50100e92961aD673b1837eFe5C97b"
  ],
  "numDeployments": 1,
  "solcInputHash": "85dc48672922c0d5f39ba3ed6f5a09b6",
  "bytecode": "0x608060405234801561001057600080fd5b50604051610c91380380610c9183398101604081905261002f91610125565b338061005557604051631e4fbdf760e01b81526000600482015260240160405180910390fd5b61005e816100b9565b506001600160a01b0382161580159061007f57506001600160a01b03811615155b61008857600080fd5b600180546001600160a01b039384166001600160a01b03199182161790915560028054929093169116179055610158565b600080546001600160a01b038381166001600160a01b0319831681178455604051919092169283917f8be0079c531659141344cd1fd0a4f28419497f9722a3daafe3b4186f6b6457e09190a35050565b80516001600160a01b038116811461012057600080fd5b919050565b6000806040838503121561013857600080fd5b61014183610109565b915061014f60208401610109565b90509250929050565b610b2a806101676000396000f3fe608060405234801561001057600080fd5b50600436106100b45760003560e01c80638da5cb5b116100715780638da5cb5b146101435780639cd441da146101545780639d7de6b314610167578063e4f1f70a1461017a578063efe48add1461018d578063f2fde38b1461019657600080fd5b80630fc63d10146100b95780633a60cacf146100e957806341976e09146101005780635f64b55b14610113578063715018a6146101265780638014a7aa14610130575b600080fd5b6001546100cc906001600160a01b031681565b6040516001600160a01b0390911681526020015b60405180910390f35b6100f260035481565b6040519081526020016100e0565b6100f261010e3660046109ce565b6101a9565b6002546100cc906001600160a01b031681565b61012e61026f565b005b61012e61013e3660046109fe565b610283565b6000546001600160a01b03166100cc565b61012e610162366004610a17565b610435565b61012e610175366004610a17565b6105b2565b61012e6101883660046109fe565b61072d565b6100f260045481565b61012e6101a43660046109ce565b6108d7565b6001546000906001600160a01b03838116911614806101d557506002546001600160a01b038381169116145b6102195760405162461bcd60e51b815260206004820152601060248201526f546f6b656e20696e636f72726563746f60801b60448201526064015b60405180910390fd5b6001546001600160a01b03908116908316036102575760035460045461024790670de0b6b3a7640000610a4f565b6102519190610a66565b92915050565b60045460035461024790670de0b6b3a7640000610a4f565b610277610915565b6102816000610942565b565b6000811161029057600080fd5b60006102a160045460035484610992565b90506003548111156102b257600080fd5b6002546040516323b872dd60e01b81526001600160a01b03909116906323b872dd906102e690339030908790600401610a88565b6020604051808303816000875af1158015610305573d6000803e3d6000fd5b505050506040513d601f19601f820116820180604052508101906103299190610aac565b5060015460405163a9059cbb60e01b8152336004820152602481018390526001600160a01b039091169063a9059cbb906044016020604051808303816000875af115801561037b573d6000803e3d6000fd5b505050506040513d601f19601f8201168201806040525081019061039f9190610aac565b5081600460008282546103b29190610ace565b9250508190555080600360008282546103cb9190610ae1565b9091555050600254600154604080513381526001600160a01b039384166020820152929091169082015260608101839052608081018290527fad56699d0f375866eb895ed27203058a36a713382aaded78eb6b67da266d43329060a0015b60405180910390a15050565b61043d610915565b811580159061044b57508015155b61045457600080fd5b6001546040516323b872dd60e01b81526001600160a01b03909116906323b872dd9061048890339030908790600401610a88565b6020604051808303816000875af11580156104a7573d6000803e3d6000fd5b505050506040513d601f19601f820116820180604052508101906104cb9190610aac565b506002546040516323b872dd60e01b81526001600160a01b03909116906323b872dd9061050090339030908690600401610a88565b6020604051808303816000875af115801561051f573d6000803e3d6000fd5b505050506040513d601f19601f820116820180604052508101906105439190610aac565b5081600360008282546105569190610ace565b92505081905550806004600082825461056f9190610ace565b909155505060408051338152602081018490529081018290527fac1d76749e5447b7b16f5ab61447e1bd502f3bb4807af3b28e620d1700a6ee4590606001610429565b6105ba610915565b6000821180156105ca5750600081115b6105d357600080fd5b60015460405163a9059cbb60e01b8152336004820152602481018490526001600160a01b039091169063a9059cbb906044016020604051808303816000875af1158015610624573d6000803e3d6000fd5b505050506040513d601f19601f820116820180604052508101906106489190610aac565b5060025460405163a9059cbb60e01b8152336004820152602481018390526001600160a01b039091169063a9059cbb906044016020604051808303816000875af115801561069a573d6000803e3d6000fd5b505050506040513d601f19601f820116820180604052508101906106be9190610aac565b5081600360008282546106d19190610ae1565b9250508190555080600460008282546106ea9190610ae1565b909155505060408051338152602081018490529081018290527f96cd817c6329656790ef8fba7675405193677d39619571282f5e21f3a98cd05990606001610429565b6000811161073a57600080fd5b600061074b60035460045484610992565b905060045481111561075c57600080fd5b6001546040516323b872dd60e01b81526001600160a01b03909116906323b872dd9061079090339030908790600401610a88565b6020604051808303816000875af11580156107af573d6000803e3d6000fd5b505050506040513d601f19601f820116820180604052508101906107d39190610aac565b5060025460405163a9059cbb60e01b8152336004820152602481018390526001600160a01b039091169063a9059cbb906044016020604051808303816000875af1158015610825573d6000803e3d6000fd5b505050506040513d601f19601f820116820180604052508101906108499190610aac565b50816003600082825461085c9190610ace565b9250508190555080600460008282546108759190610ae1565b9091555050600154600254604080513381526001600160a01b039384166020820152929091169082015260608101839052608081018290527fad56699d0f375866eb895ed27203058a36a713382aaded78eb6b67da266d43329060a001610429565b6108df610915565b6001600160a01b03811661090957604051631e4fbdf760e01b815260006004820152602401610210565b61091281610942565b50565b6000546001600160a01b031633146102815760405163118cdaa760e01b8152336004820152602401610210565b600080546001600160a01b038381166001600160a01b0319831681178455604051919092169283917f8be0079c531659141344cd1fd0a4f28419497f9722a3daafe3b4186f6b6457e09190a35050565b60008061099f8386610ace565b90506000816109ae8688610a4f565b6109b89190610a66565b90506109c48186610ae1565b9695505050505050565b6000602082840312156109e057600080fd5b81356001600160a01b03811681146109f757600080fd5b9392505050565b600060208284031215610a1057600080fd5b5035919050565b60008060408385031215610a2a57600080fd5b50508035926020909101359150565b634e487b7160e01b600052601160045260246000fd5b808202811582820484141761025157610251610a39565b600082610a8357634e487b7160e01b600052601260045260246000fd5b500490565b6001600160a01b039384168152919092166020820152604081019190915260600190565b600060208284031215610abe57600080fd5b815180151581146109f757600080fd5b8082018082111561025157610251610a39565b8181038181111561025157610251610a3956fea264697066735822122084ac37073acf939739da0cd9553f3a58eefda9ce21d96e388aba3673f517044664736f6c634300081a0033",
  "devdoc": {
    "errors": {
      "OwnableInvalidOwner(address)": [
        {
          "details": "The owner is not a valid owner account. (eg. `address(0)`)"
        }
      ],
      "OwnableUnauthorizedAccount(address)": [
        {
          "details": "The caller account is not authorized to perform an operation."
        }
      ]
    },
    "kind": "dev",
    "methods": {
      "owner()": {
        "details": "Returns the address of the current owner."
      },
      "renounceOwnership()": {
        "details": "Leaves the contract without owner. It will not be possible to call `onlyOwner` functions. Can only be called by the current owner. NOTE: Renouncing ownership will leave the contract without an owner, thereby disabling any functionality that is only available to the owner."
      },
      "transferOwnership(address)": {
        "details": "Transfers ownership of the contract to a new account (`newOwner`). Can only be called by the current owner."
      }
    },
    "version": 1
  },
  "userdoc": {
    "kind": "user",
    "methods": {},
    "version": 1
  },
  "storageLayout": {
    "storage": [
      {
        "astId": 8,
        "contract": "contracts/SimpleDEX.sol:SimpleDEX",
        "label": "_owner",
        "offset": 0,
        "slot": "0",
        "type": "t_address"
      },
      {
        "astId": 942,
        "contract": "contracts/SimpleDEX.sol:SimpleDEX",
        "label": "tokenA",
        "offset": 0,
        "slot": "1",
        "type": "t_contract(IERC20)877"
      },
      {
        "astId": 945,
        "contract": "contracts/SimpleDEX.sol:SimpleDEX",
        "label": "tokenB",
        "offset": 0,
        "slot": "2",
        "type": "t_contract(IERC20)877"
      },
      {
        "astId": 947,
        "contract": "contracts/SimpleDEX.sol:SimpleDEX",
        "label": "liquidTokenA",
        "offset": 0,
        "slot": "3",
        "type": "t_uint256"
      },
      {
        "astId": 949,
        "contract": "contracts/SimpleDEX.sol:SimpleDEX",
        "label": "liquidTokenB",
        "offset": 0,
        "slot": "4",
        "type": "t_uint256"
      }
    ],
    "types": {
      "t_address": {
        "encoding": "inplace",
        "label": "address",
        "numberOfBytes": "20"
      },
      "t_contract(IERC20)877": {
        "encoding": "inplace",
        "label": "contract IERC20",
        "numberOfBytes": "20"
      },
      "t_uint256": {
        "encoding": "inplace",
        "label": "uint256",
        "numberOfBytes": "32"
      }
    }
  }
}